{
  "_format": "hh-sol-artifact-1",
  "contractName": "SuperDexPool",
  "sourceName": "contracts/SuperDexPool.sol",
  "abi": [
    {
      "inputs": [],
      "stateMutability": "nonpayable",
      "type": "constructor"
    },
    {
      "inputs": [],
      "name": "factory",
      "outputs": [
        {
          "internalType": "address",
          "name": "",
          "type": "address"
        }
      ],
      "stateMutability": "view",
      "type": "function"
    },
    {
      "inputs": [
        {
          "internalType": "address",
          "name": "_token0",
          "type": "address"
        },
        {
          "internalType": "address",
          "name": "_token1",
          "type": "address"
        }
      ],
      "name": "initialize",
      "outputs": [],
      "stateMutability": "nonpayable",
      "type": "function"
    },
    {
      "inputs": [],
      "name": "token0",
      "outputs": [
        {
          "internalType": "address",
          "name": "",
          "type": "address"
        }
      ],
      "stateMutability": "view",
      "type": "function"
    },
    {
      "inputs": [],
      "name": "token1",
      "outputs": [
        {
          "internalType": "address",
          "name": "",
          "type": "address"
        }
      ],
      "stateMutability": "view",
      "type": "function"
    }
  ],
  "bytecode": "0x60a060405234801561001057600080fd5b503373ffffffffffffffffffffffffffffffffffffffff1660808173ffffffffffffffffffffffffffffffffffffffff16815250506080516103c86100666000396000818160ed015261020001526103c86000f3fe608060405234801561001057600080fd5b506004361061004c5760003560e01c80630dfe168114610051578063485cc9551461006f578063c45a01551461008b578063d21220a7146100a9575b600080fd5b6100596100c7565b6040516100669190610289565b60405180910390f35b610089600480360381019061008491906102d5565b6100eb565b005b6100936101fe565b6040516100a09190610289565b60405180910390f35b6100b1610222565b6040516100be9190610289565b60405180910390f35b60008054906101000a900473ffffffffffffffffffffffffffffffffffffffff1681565b7f000000000000000000000000000000000000000000000000000000000000000073ffffffffffffffffffffffffffffffffffffffff163373ffffffffffffffffffffffffffffffffffffffff1614610179576040517f08c379a000000000000000000000000000000000000000000000000000000000815260040161017090610372565b60405180910390fd5b816000806101000a81548173ffffffffffffffffffffffffffffffffffffffff021916908373ffffffffffffffffffffffffffffffffffffffff16021790555080600160006101000a81548173ffffffffffffffffffffffffffffffffffffffff021916908373ffffffffffffffffffffffffffffffffffffffff1602179055505050565b7f000000000000000000000000000000000000000000000000000000000000000081565b600160009054906101000a900473ffffffffffffffffffffffffffffffffffffffff1681565b600073ffffffffffffffffffffffffffffffffffffffff82169050919050565b600061027382610248565b9050919050565b61028381610268565b82525050565b600060208201905061029e600083018461027a565b92915050565b600080fd5b6102b281610268565b81146102bd57600080fd5b50565b6000813590506102cf816102a9565b92915050565b600080604083850312156102ec576102eb6102a4565b5b60006102fa858286016102c0565b925050602061030b858286016102c0565b9150509250929050565b600082825260208201905092915050565b7f5375706572446578506f6f6c3a20464f5242494444454e000000000000000000600082015250565b600061035c601783610315565b915061036782610326565b602082019050919050565b6000602082019050818103600083015261038b8161034f565b905091905056fea2646970667358221220c65c9ada1911c8cbd29178abe151e5f15a5e4096276749c314a6262b9d38c01b64736f6c63430008130033",
  "linkReferences": {},
  "deployedLinkReferences": {}
}